{
  "contractName": "StudentContract",
  "abi": [
    {
      "inputs": [],
      "stateMutability": "nonpayable",
      "type": "constructor"
    },
    {
      "anonymous": false,
      "inputs": [
        {
          "indexed": false,
          "internalType": "string",
          "name": "message",
          "type": "string"
        }
      ],
      "name": "SetData",
      "type": "event"
    },
    {
      "inputs": [],
      "name": "Owner",
      "outputs": [
        {
          "internalType": "address payable",
          "name": "",
          "type": "address"
        }
      ],
      "stateMutability": "view",
      "type": "function",
      "constant": true
    },
    {
      "inputs": [
        {
          "internalType": "string",
          "name": "_name",
          "type": "string"
        },
        {
          "internalType": "uint256",
          "name": "_age",
          "type": "uint256"
        },
        {
          "internalType": "string",
          "name": "_IdentityCard",
          "type": "string"
        },
        {
          "internalType": "string",
          "name": "_FathersInitial",
          "type": "string"
        },
        {
          "internalType": "string",
          "name": "_DateOfBirth",
          "type": "string"
        },
        {
          "internalType": "string",
          "name": "_MailingAddress",
          "type": "string"
        },
        {
          "internalType": "uint256",
          "name": "_PhoneNumber",
          "type": "uint256"
        },
        {
          "internalType": "string",
          "name": "_Country",
          "type": "string"
        },
        {
          "internalType": "string",
          "name": "_Nationality",
          "type": "string"
        }
      ],
      "name": "setData",
      "outputs": [
        {
          "internalType": "uint256",
          "name": "",
          "type": "uint256"
        }
      ],
      "stateMutability": "nonpayable",
      "type": "function"
    },
    {
      "inputs": [
        {
          "internalType": "string",
          "name": "_name",
          "type": "string"
        }
      ],
      "name": "setNewName",
      "outputs": [
        {
          "internalType": "bool",
          "name": "success",
          "type": "bool"
        }
      ],
      "stateMutability": "nonpayable",
      "type": "function"
    },
    {
      "inputs": [
        {
          "internalType": "string",
          "name": "_MailingAddress",
          "type": "string"
        }
      ],
      "name": "setNewMail",
      "outputs": [
        {
          "internalType": "bool",
          "name": "success",
          "type": "bool"
        }
      ],
      "stateMutability": "nonpayable",
      "type": "function"
    },
    {
      "inputs": [
        {
          "internalType": "uint256",
          "name": "studentID",
          "type": "uint256"
        }
      ],
      "name": "getStudent",
      "outputs": [
        {
          "components": [
            {
              "internalType": "string",
              "name": "name",
              "type": "string"
            },
            {
              "internalType": "uint256",
              "name": "age",
              "type": "uint256"
            },
            {
              "internalType": "string",
              "name": "IdentityCard",
              "type": "string"
            },
            {
              "internalType": "string",
              "name": "FathersInitial",
              "type": "string"
            },
            {
              "internalType": "string",
              "name": "DateOfBirth",
              "type": "string"
            },
            {
              "internalType": "string",
              "name": "MailingAddress",
              "type": "string"
            },
            {
              "internalType": "uint256",
              "name": "PhoneNumber",
              "type": "uint256"
            },
            {
              "internalType": "string",
              "name": "Country",
              "type": "string"
            },
            {
              "internalType": "string",
              "name": "Nationality",
              "type": "string"
            }
          ],
          "internalType": "struct StudentContract.StudentInfo",
          "name": "",
          "type": "tuple"
        }
      ],
      "stateMutability": "view",
      "type": "function",
      "constant": true
    }
  ],
  "bytecode": "0x60806040526000805534801561001457600080fd5b5033600360006101000a81548173ffffffffffffffffffffffffffffffffffffffff021916908373ffffffffffffffffffffffffffffffffffffffff1602179055506111ab806100656000396000f3fe608060405234801561001057600080fd5b50600436106100575760003560e01c806307d1e42f1461005c578063642f91631461008c5780638f762032146100bc578063b4a99a4e146100ec578063bd4f8a411461010a575b600080fd5b61007660048036038101906100719190610ac4565b61013a565b6040516100839190610e81565b60405180910390f35b6100a660048036038101906100a19190610c73565b6101fa565b6040516100b39190610ebc565b60405180910390f35b6100d660048036038101906100d19190610b05565b61067a565b6040516100e39190610ede565b60405180910390f35b6100f4610872565b6040516101019190610e66565b60405180910390f35b610124600480360381019061011f9190610ac4565b610898565b6040516101319190610e81565b60405180910390f35b600080600460003373ffffffffffffffffffffffffffffffffffffffff1673ffffffffffffffffffffffffffffffffffffffff16815260200190815260200160002054905060006001808361018f9190610f87565b815481106101c6577f4e487b7100000000000000000000000000000000000000000000000000000000600052603260045260246000fd5b90600052602060002090600902019050838160000190805190602001906101ee929190610958565b50600192505050919050565b6102026109de565b600180836102109190610f87565b81548110610247577f4e487b7100000000000000000000000000000000000000000000000000000000600052603260045260246000fd5b90600052602060002090600902016040518061012001604052908160008201805461027190611045565b80601f016020809104026020016040519081016040528092919081815260200182805461029d90611045565b80156102ea5780601f106102bf576101008083540402835291602001916102ea565b820191906000526020600020905b8154815290600101906020018083116102cd57829003601f168201915b505050505081526020016001820154815260200160028201805461030d90611045565b80601f016020809104026020016040519081016040528092919081815260200182805461033990611045565b80156103865780601f1061035b57610100808354040283529160200191610386565b820191906000526020600020905b81548152906001019060200180831161036957829003601f168201915b5050505050815260200160038201805461039f90611045565b80601f01602080910402602001604051908101604052809291908181526020018280546103cb90611045565b80156104185780601f106103ed57610100808354040283529160200191610418565b820191906000526020600020905b8154815290600101906020018083116103fb57829003601f168201915b5050505050815260200160048201805461043190611045565b80601f016020809104026020016040519081016040528092919081815260200182805461045d90611045565b80156104aa5780601f1061047f576101008083540402835291602001916104aa565b820191906000526020600020905b81548152906001019060200180831161048d57829003601f168201915b505050505081526020016005820180546104c390611045565b80601f01602080910402602001604051908101604052809291908181526020018280546104ef90611045565b801561053c5780601f106105115761010080835404028352916020019161053c565b820191906000526020600020905b81548152906001019060200180831161051f57829003601f168201915b505050505081526020016006820154815260200160078201805461055f90611045565b80601f016020809104026020016040519081016040528092919081815260200182805461058b90611045565b80156105d85780601f106105ad576101008083540402835291602001916105d8565b820191906000526020600020905b8154815290600101906020018083116105bb57829003601f168201915b505050505081526020016008820180546105f190611045565b80601f016020809104026020016040519081016040528092919081815260200182805461061d90611045565b801561066a5780601f1061063f5761010080835404028352916020019161066a565b820191906000526020600020905b81548152906001019060200180831161064d57829003601f168201915b5050505050815250509050919050565b6000806040518061012001604052808c81526020018b81526020018a815260200189815260200188815260200187815260200186815260200185815260200184815250905060018190806001815401808255809150506001900390600052602060002090600902016000909190919091506000820151816000019080519060200190610707929190610958565b5060208201518160010155604082015181600201908051906020019061072e929190610958565b50606082015181600301908051906020019061074b929190610958565b506080820151816004019080519060200190610768929190610958565b5060a0820151816005019080519060200190610785929190610958565b5060c0820151816006015560e08201518160070190805190602001906107ac929190610958565b506101008201518160080190805190602001906107ca929190610958565b5050506000808154809291906107df90611077565b9190505550600054600460003373ffffffffffffffffffffffffffffffffffffffff1673ffffffffffffffffffffffffffffffffffffffff168152602001908152602001600020819055507fb7e8260cd4f33632ad50f781010e77ff5c3d457093062c4f902de367ab75595360405161085790610e9c565b60405180910390a16000549150509998505050505050505050565b600360009054906101000a900473ffffffffffffffffffffffffffffffffffffffff1681565b600080600460003373ffffffffffffffffffffffffffffffffffffffff1673ffffffffffffffffffffffffffffffffffffffff1681526020019081526020016000205490506000600180836108ed9190610f87565b81548110610924577f4e487b7100000000000000000000000000000000000000000000000000000000600052603260045260246000fd5b906000526020600020906009020190508381600501908051906020019061094c929190610958565b50600192505050919050565b82805461096490611045565b90600052602060002090601f01602090048101928261098657600085556109cd565b82601f1061099f57805160ff19168380011785556109cd565b828001600101855582156109cd579182015b828111156109cc5782518255916020019190600101906109b1565b5b5090506109da9190610a2a565b5090565b6040518061012001604052806060815260200160008152602001606081526020016060815260200160608152602001606081526020016000815260200160608152602001606081525090565b5b80821115610a43576000816000905550600101610a2b565b5090565b6000610a5a610a5584610f2a565b610ef9565b905082815260208101848484011115610a7257600080fd5b610a7d848285611003565b509392505050565b600082601f830112610a9657600080fd5b8135610aa6848260208601610a47565b91505092915050565b600081359050610abe8161115e565b92915050565b600060208284031215610ad657600080fd5b600082013567ffffffffffffffff811115610af057600080fd5b610afc84828501610a85565b91505092915050565b60008060008060008060008060006101208a8c031215610b2457600080fd5b60008a013567ffffffffffffffff811115610b3e57600080fd5b610b4a8c828d01610a85565b9950506020610b5b8c828d01610aaf565b98505060408a013567ffffffffffffffff811115610b7857600080fd5b610b848c828d01610a85565b97505060608a013567ffffffffffffffff811115610ba157600080fd5b610bad8c828d01610a85565b96505060808a013567ffffffffffffffff811115610bca57600080fd5b610bd68c828d01610a85565b95505060a08a013567ffffffffffffffff811115610bf357600080fd5b610bff8c828d01610a85565b94505060c0610c108c828d01610aaf565b93505060e08a013567ffffffffffffffff811115610c2d57600080fd5b610c398c828d01610a85565b9250506101008a013567ffffffffffffffff811115610c5757600080fd5b610c638c828d01610a85565b9150509295985092959850929598565b600060208284031215610c8557600080fd5b6000610c9384828501610aaf565b91505092915050565b610ca581610fbb565b82525050565b610cb481610fcd565b82525050565b6000610cc582610f5a565b610ccf8185610f65565b9350610cdf818560208601611012565b610ce88161114d565b840191505092915050565b6000610d00602683610f76565b91507f436f6e67726174756c6174696f6e7320796f7520686176652073657420796f7560008301527f72206461746100000000000000000000000000000000000000000000000000006020830152604082019050919050565b6000610120830160008301518482036000860152610d778282610cba565b9150506020830151610d8c6020860182610e48565b5060408301518482036040860152610da48282610cba565b91505060608301518482036060860152610dbe8282610cba565b91505060808301518482036080860152610dd88282610cba565b91505060a083015184820360a0860152610df28282610cba565b91505060c0830151610e0760c0860182610e48565b5060e083015184820360e0860152610e1f8282610cba565b915050610100830151848203610100860152610e3b8282610cba565b9150508091505092915050565b610e5181610ff9565b82525050565b610e6081610ff9565b82525050565b6000602082019050610e7b6000830184610c9c565b92915050565b6000602082019050610e966000830184610cab565b92915050565b60006020820190508181036000830152610eb581610cf3565b9050919050565b60006020820190508181036000830152610ed68184610d59565b905092915050565b6000602082019050610ef36000830184610e57565b92915050565b6000604051905081810181811067ffffffffffffffff82111715610f2057610f1f61111e565b5b8060405250919050565b600067ffffffffffffffff821115610f4557610f4461111e565b5b601f19601f8301169050602081019050919050565b600081519050919050565b600082825260208201905092915050565b600082825260208201905092915050565b6000610f9282610ff9565b9150610f9d83610ff9565b925082821015610fb057610faf6110c0565b5b828203905092915050565b6000610fc682610fd9565b9050919050565b60008115159050919050565b600073ffffffffffffffffffffffffffffffffffffffff82169050919050565b6000819050919050565b82818337600083830152505050565b60005b83811015611030578082015181840152602081019050611015565b8381111561103f576000848401525b50505050565b6000600282049050600182168061105d57607f821691505b60208210811415611071576110706110ef565b5b50919050565b600061108282610ff9565b91507fffffffffffffffffffffffffffffffffffffffffffffffffffffffffffffffff8214156110b5576110b46110c0565b5b600182019050919050565b7f4e487b7100000000000000000000000000000000000000000000000000000000600052601160045260246000fd5b7f4e487b7100000000000000000000000000000000000000000000000000000000600052602260045260246000fd5b7f4e487b7100000000000000000000000000000000000000000000000000000000600052604160045260246000fd5b6000601f19601f8301169050919050565b61116781610ff9565b811461117257600080fd5b5056fea2646970667358221220c6e9be2bc259c16225ff5cc820d752019b6c39abebf65d761684df8ed460b33e64736f6c63430008000033",
  "immutableReferences": {},
  "source": "// SPDX-License-Identifier: MIT\n\npragma solidity ^0.8.0;\npragma experimental ABIEncoderV2;\n\n\n\ncontract StudentContract  {\n\n\nuint256 internal studentCount = 0;\n\n// Struct to store data of users. \nstruct StudentInfo {\nstring name;  \nuint age;\nstring IdentityCard;\nstring FathersInitial;\nstring DateOfBirth;\nstring MailingAddress;\nuint PhoneNumber;\nstring Country;\nstring Nationality; \n}\n\nStudentInfo[] internal StudentInfoArray;\nstring[] internal OtherArray;\naddress payable public Owner;\nmapping (address => uint256) internal students;\n\nevent SetData(string message); \n\n\nconstructor () {\n    \n    Owner = payable(msg.sender);        \n\n}\n\n\n   function setData(\nstring memory _name,\nuint _age,\nstring memory _IdentityCard,\nstring memory _FathersInitial,\nstring memory _DateOfBirth,\nstring memory _MailingAddress,\nuint _PhoneNumber,\nstring memory _Country,\nstring memory _Nationality) public returns (uint256) {\n    \n /*require(students[msg.sender] == 0, \"Data already exist for this wallet\");*/\n    \n    StudentInfo memory tx1 = StudentInfo(\n        _name,\n        _age,\n        _IdentityCard,\n        _FathersInitial,\n        _DateOfBirth,\n        _MailingAddress,\n        _PhoneNumber,\n        _Country,\n        _Nationality );\n    StudentInfoArray.push(tx1);\n    studentCount ++;\n    students[msg.sender] = studentCount;\n    \n    emit SetData(\"Congratulations you have set your data\");\n    \n    return studentCount;\n}\n\n modifier onlyOwner() {\n        require(Owner == msg.sender, \"Ownable: caller is not the owner\");\n        _;\n    }\n    \n   function setNewName(string memory _name)public returns(bool success){\n    uint studentId = students[msg.sender];\n    StudentInfo storage newStudent = StudentInfoArray[studentId - 1];\n    newStudent.name = _name;\n    return true;\n    \n}\n\nfunction setNewMail(string memory _MailingAddress)public returns(bool success){\n    uint studentId = students[msg.sender];\n    StudentInfo storage newStudent = StudentInfoArray[studentId - 1];\n    newStudent.MailingAddress = _MailingAddress;\n    return true;\n    \n}\n\nfunction getStudent(uint studentID) public view returns(StudentInfo memory) {\n    return StudentInfoArray[studentID-1];\n}\n\n\n\n\n}",
  "sourcePath": "/home/andrei/LicentaFinal3/student-back/contracts/StudentContract.sol",
  "compiler": {
    "name": "solc",
    "version": "0.8.0+commit.c7dfd78e.Emscripten.clang"
  },
  "schemaVersion": "3.4.3",
  "updatedAt": "2021-09-03T18:43:41.496Z",
  "networkType": "ethereum",
  "devdoc": {
    "kind": "dev",
    "methods": {},
    "version": 1
  },
  "userdoc": {
    "kind": "user",
    "methods": {},
    "version": 1
  }
}